S014000044544D465F41546D656761382E737265631F
S113000012C019C018C017C016C015C014C013C040
S113001012C011C010C00FC00EC00DC00CC00BC068
S11300200AC009C008C011241FBECFE5D4E0DEBF5A
S1130030CDBF33D002C2E4CFCF92DF92EF92FF92D2
S11300400F931F93CF93DF9320E030E048E352E413
S113005040D16B017C0120E030E0A90136D11816B3
S11300609CF4C0E0D0E000E010E0C8010197F1F793
S11300702196BE010D2E000C880B990BC7D0A70149
S11300809601BED088238CF3DF91CF911F910F91FD
S1130090FF90EF90DF90CF9008958EE187BB80E1D1
S11300A081BB6894AA24A2F86894FF24F4F80F2E64
S11300B0FCE0DF2EF02D6894BB24B3F86894CC24C4
S11300C0C1F80F2EF2E1EF2EF02D86B3082F017048
S11300D010E0C0B3C07ED0E09498C038D10529F4B4
S11300E00115110551F5E8BA28C0C034D10589F4C9
S11300F00115110551F5F8BAF2BA6DEC7CEC8CE4FB
S11301009EE39ADF94986DEC7CEC8CE49EE394DFA0
S11301101CC0C03CD10589F40115110549F5C8BAC4
S1130120F2BA6DEC7CEC8CE49EE386DF94986DEC83
S11301307CEC8CE49EE380DF1BC0C032D10529F443
S11301400115110549F5D8BA27C0209789F4013063
S11301501105B9F5F8BAF2BA60E070E080E09FE307
S11301606BDFE8BA60E070E080E291E465DF29C00B
S1130170C038D10589F401301105C1F5C8BAF2BA05
S113018060E070E080E09FE357DFE8BA60E070E091
S113019080E291E451DF2AC0C03CD10591F40130E2
S11301A0110509F092CFB8BAF2BA60E070E080E0CD
S11301B09FE342DFD8BA60E070E080E291E43CDF84
S11301C084CFC032D10591F40130110509F07DCFFF
S11301D0A8BAF2BA60E070E080E09FE32DDFD8BAFD
S11301E060E070E080E291E427DF6FCFC034D10596
S11301F009F06BCF0130110509F067CF18BA65CF4C
S113020040D008F481E00895E89409C097FB3EF4D7
S113021090958095709561957F4F8F4F9F4F99234F
S1130220A9F0F92F96E9BB279395F69587957795CD
S11302306795B795F111F8CFFAF4BB0F11F460FF8D
S11302401BC06F5F7F4F8F4F9F4F16C0882311F0E5
S113025096E911C0772321F09EE8872F762F05C0F9
S1130260662371F096E8862F70E060E02AF09A9594
S1130270660F771F881FDAF7880F9695879597F989
S11302800895990F0008550FAA0BE0E8FEEF161623
S11302901706E807F907C0F012161306E407F50776
S11302A098F0621B730B840B950B39F40A2661F0EA
S11302B0232B242B252B21F408950A2609F4A1408D
S11302C0A6958FEF811D811D0895DBDF08F48FEF64
S11302D008950BD078C069D028F06ED018F095231B
S11302E009F05AC05FC01124A2C07ED0A0F3959F2C
S11302F0D1F3950F50E0551F629FF001729FBB2709
S1130300F00DB11D639FAA27F00DB11DAA1F649FB4
S11303106627B00DA11D661F829F2227B00DA11D67
S1130320621F739FB00DA11D621F839FA00D611DED
S1130330221F749F3327A00D611D231F849F600D0E
S1130340211D822F762F6A2F11249F5750408AF047
S1130350E1F088234AF0EE0FFF1FBB1F661F771FD3
S1130360881F91505040A9F79E3F510570F014C06A
S11303705EC05F3FECF3983EDCF386957795679516
S1130380B795F795E7959F5FC1F7FE2B880F911DF1
S11303909695879597F9089597F99F6780E870E097
S11303A060E008959FEF80EC089500240A941616E7
S11303B0170618060906089500240A94121613064F
S11303C0140605060895092E0394000C11F48823DD
S11303D052F0BB0F40F4BF2B11F460FF04C06F5FF9
S11303E07F4F8F4F9F4F089557FD9058440F551FCF
S11303F059F05F3F71F04795880F97FB991F61F0A3
S11304009F3F79F087950895121613061406551F19
S1130410F2CF4695F1DF08C0161617061806991F85
S1130420F1CF86957105610508940895E894BB277A
S111043066277727CB0197F90895F894FFCF3C
S9030000FC
